{
  "contractName": "Certification",
  "abi": [
    {
      "constant": true,
      "inputs": [],
      "name": "owner",
      "outputs": [
        {
          "name": "",
          "type": "address"
        }
      ],
      "payable": false,
      "stateMutability": "view",
      "type": "function"
    },
    {
      "constant": true,
      "inputs": [],
      "name": "institution",
      "outputs": [
        {
          "name": "",
          "type": "address"
        }
      ],
      "payable": false,
      "stateMutability": "view",
      "type": "function"
    },
    {
      "inputs": [
        {
          "name": "_institution",
          "type": "address"
        }
      ],
      "payable": false,
      "stateMutability": "nonpayable",
      "type": "constructor"
    },
    {
      "anonymous": false,
      "inputs": [
        {
          "indexed": false,
          "name": "_certificateId",
          "type": "bytes32"
        }
      ],
      "name": "certificateGenerated",
      "type": "event"
    },
    {
      "anonymous": false,
      "inputs": [
        {
          "indexed": false,
          "name": "_certificateId",
          "type": "bytes32"
        }
      ],
      "name": "certificateRevoked",
      "type": "event"
    },
    {
      "constant": false,
      "inputs": [
        {
          "name": "_id",
          "type": "string"
        },
        {
          "name": "_candidate_name",
          "type": "string"
        },
        {
          "name": "_course_index",
          "type": "uint256"
        },
        {
          "name": "_creation_date",
          "type": "string"
        }
      ],
      "name": "generateCertificate",
      "outputs": [],
      "payable": false,
      "stateMutability": "nonpayable",
      "type": "function"
    },
    {
      "constant": true,
      "inputs": [
        {
          "name": "_id",
          "type": "string"
        }
      ],
      "name": "getData",
      "outputs": [
        {
          "name": "",
          "type": "string"
        },
        {
          "name": "",
          "type": "string"
        },
        {
          "name": "",
          "type": "string"
        },
        {
          "name": "",
          "type": "string"
        },
        {
          "name": "",
          "type": "string"
        },
        {
          "name": "",
          "type": "string"
        },
        {
          "name": "",
          "type": "bool"
        }
      ],
      "payable": false,
      "stateMutability": "view",
      "type": "function"
    },
    {
      "constant": false,
      "inputs": [
        {
          "name": "_id",
          "type": "string"
        }
      ],
      "name": "revokeCertificate",
      "outputs": [],
      "payable": false,
      "stateMutability": "nonpayable",
      "type": "function"
    }
  ],
  "bytecode": "0x60806040523480156200001157600080fd5b506040516020806200198d8339810180604052620000339190810190620000d1565b336000806101000a81548173ffffffffffffffffffffffffffffffffffffffff021916908373ffffffffffffffffffffffffffffffffffffffff16021790555080600160006101000a81548173ffffffffffffffffffffffffffffffffffffffff021916908373ffffffffffffffffffffffffffffffffffffffff1602179055505062000145565b6000620000c9825162000131565b905092915050565b600060208284031215620000e457600080fd5b6000620000f484828501620000bb565b91505092915050565b60006200010a8262000111565b9050919050565b600073ffffffffffffffffffffffffffffffffffffffff82169050919050565b60006200013e82620000fd565b9050919050565b61183880620001556000396000f3fe608060405260043610610067576000357c010000000000000000000000000000000000000000000000000000000090048063142e15421461006c5780638da5cb5b14610095578063a0e1995e146100c0578063ae55c888146100e9578063d1384eb61461012c575b600080fd5b34801561007857600080fd5b50610093600480360361008e9190810190611184565b610157565b005b3480156100a157600080fd5b506100aa6103d8565b6040516100b791906114b6565b60405180910390f35b3480156100cc57600080fd5b506100e760048036036100e29190810190611288565b6103fd565b005b3480156100f557600080fd5b50610110600480360361010b9190810190611184565b6108c2565b6040516101239796959493929190611522565b60405180910390f35b34801561013857600080fd5b50610141610e34565b60405161014e9190611507565b60405180910390f35b60011515600160009054906101000a900473ffffffffffffffffffffffffffffffffffffffff1673ffffffffffffffffffffffffffffffffffffffff1663b350ce3c336040518263ffffffff167c01000000000000000000000000000000000000000000000000000000000281526004016101d291906114d1565b60206040518083038186803b1580156101ea57600080fd5b505afa1580156101fe573d6000803e3d6000fd5b505050506040513d601f19601f82011682018060405250610222919081019061115b565b1515141515610266576040517f08c379a000000000000000000000000000000000000000000000000000000000815260040161025d906115bb565b60405180910390fd5b600061027182610e5a565b90506060600260008381526020019081526020016000206002018054600181600116156101000203166002900480601f01602080910402602001604051908101604052809291908181526020018280546001816001161561010002031660029004801561031f5780601f106102f45761010080835404028352916020019161031f565b820191906000526020600020905b81548152906001019060200180831161030257829003601f168201915b50505050509050600081511415151561036d576040517f08c379a0000000000000000000000000000000000000000000000000000000008152600401610364906115fb565b60405180910390fd5b60016002600084815260200190815260200160002060060160006101000a81548160ff0219169083151502179055507f222e6f0e7dd20e77993dc592413db91f20cfba6c1833b91ee72aeeb0c2dc99ec826040516103cb91906114ec565b60405180910390a1505050565b6000809054906101000a900473ffffffffffffffffffffffffffffffffffffffff1681565b60011515600160009054906101000a900473ffffffffffffffffffffffffffffffffffffffff1673ffffffffffffffffffffffffffffffffffffffff1663b350ce3c336040518263ffffffff167c010000000000000000000000000000000000000000000000000000000002815260040161047891906114d1565b60206040518083038186803b15801561049057600080fd5b505afa1580156104a4573d6000803e3d6000fd5b505050506040513d601f19601f820116820180604052506104c8919081019061115b565b151514151561050c576040517f08c379a0000000000000000000000000000000000000000000000000000000008152600401610503906115bb565b60405180910390fd5b600061051785610e5a565b90506060600260008381526020019081526020016000206002018054600181600116156101000203166002900480601f0160208091040260200160405190810160405280929190818152602001828054600181600116156101000203166002900480156105c55780601f1061059a576101008083540402835291602001916105c5565b820191906000526020600020905b8154815290600101906020018083116105a857829003601f168201915b5050505050905060008151141515610612576040517f08c379a0000000000000000000000000000000000000000000000000000000008152600401610609906115db565b60405180910390fd5b606080606080600160009054906101000a900473ffffffffffffffffffffffffffffffffffffffff1673ffffffffffffffffffffffffffffffffffffffff16637c0edcdf336040518263ffffffff167c010000000000000000000000000000000000000000000000000000000002815260040161068f91906114d1565b60006040518083038186803b1580156106a757600080fd5b505afa1580156106bb573d6000803e3d6000fd5b505050506040513d6000823e3d601f19601f820116820180604052506106e491908101906111c5565b9350935093509350600088101580156106fd5750805188105b151561073e576040517f08c379a00000000000000000000000000000000000000000000000000000000081526004016107359061161b565b60405180910390fd5b6060818981518110151561074e57fe5b90602001906020020151600001519050600080905060e0604051908101604052808c81526020018381526020018a8152602001878152602001868152602001858152602001821515815250600260008a815260200190815260200160002060008201518160000190805190602001906107c8929190610e86565b5060208201518160010190805190602001906107e5929190610e86565b506040820151816002019080519060200190610802929190610e86565b50606082015181600301908051906020019061081f929190610e86565b50608082015181600401908051906020019061083c929190610e86565b5060a0820151816005019080519060200190610859929190610e86565b5060c08201518160060160006101000a81548160ff0219169083151502179055509050507ff54e0f0055ffae318a21890316ed523f8a60aa59aaa279dfdcae7176155ec0db886040516108ac91906114ec565b60405180910390a1505050505050505050505050565b6060806060806060806000806108d789610e5a565b90506108e1610f06565b6002600083815260200190815260200160002060e06040519081016040529081600082018054600181600116156101000203166002900480601f0160208091040260200160405190810160405280929190818152602001828054600181600116156101000203166002900480156109995780601f1061096e57610100808354040283529160200191610999565b820191906000526020600020905b81548152906001019060200180831161097c57829003601f168201915b50505050508152602001600182018054600181600116156101000203166002900480601f016020809104026020016040519081016040528092919081815260200182805460018160011615610100020316600290048015610a3b5780601f10610a1057610100808354040283529160200191610a3b565b820191906000526020600020905b815481529060010190602001808311610a1e57829003601f168201915b50505050508152602001600282018054600181600116156101000203166002900480601f016020809104026020016040519081016040528092919081815260200182805460018160011615610100020316600290048015610add5780601f10610ab257610100808354040283529160200191610add565b820191906000526020600020905b815481529060010190602001808311610ac057829003601f168201915b50505050508152602001600382018054600181600116156101000203166002900480601f016020809104026020016040519081016040528092919081815260200182805460018160011615610100020316600290048015610b7f5780601f10610b5457610100808354040283529160200191610b7f565b820191906000526020600020905b815481529060010190602001808311610b6257829003601f168201915b50505050508152602001600482018054600181600116156101000203166002900480601f016020809104026020016040519081016040528092919081815260200182805460018160011615610100020316600290048015610c215780601f10610bf657610100808354040283529160200191610c21565b820191906000526020600020905b815481529060010190602001808311610c0457829003601f168201915b50505050508152602001600582018054600181600116156101000203166002900480601f016020809104026020016040519081016040528092919081815260200182805460018160011615610100020316600290048015610cc35780601f10610c9857610100808354040283529160200191610cc3565b820191906000526020600020905b815481529060010190602001808311610ca657829003601f168201915b505050505081526020016006820160009054906101000a900460ff16151515158152505090506060600260008481526020019081526020016000206002018054600181600116156101000203166002900480601f016020809104026020016040519081016040528092919081815260200182805460018160011615610100020316600290048015610d955780601f10610d6a57610100808354040283529160200191610d95565b820191906000526020600020905b815481529060010190602001808311610d7857829003601f168201915b505050505090506000815114151515610de3576040517f08c379a0000000000000000000000000000000000000000000000000000000008152600401610dda906115fb565b60405180910390fd5b816000015182602001518360400151846060015185608001518660a001518760c001518696508595508494508393508292508191509950995099509950995099509950505050919395979092949650565b600160009054906101000a900473ffffffffffffffffffffffffffffffffffffffff1681565b60006060829050600081511415610e78576000600102915050610e81565b60208301519150505b919050565b828054600181600116156101000203166002900490600052602060002090601f016020900481019282601f10610ec757805160ff1916838001178555610ef5565b82800160010185558215610ef5579182015b82811115610ef4578251825591602001919060010190610ed9565b5b509050610f029190610f46565b5090565b60e0604051908101604052806060815260200160608152602001606081526020016060815260200160608152602001606081526020016000151581525090565b610f6891905b80821115610f64576000816000905550600101610f4c565b5090565b90565b600082601f8301121515610f7e57600080fd5b8151610f91610f8c82611668565b61163b565b9150818183526020840193506020810190508360005b83811015610fd75781518601610fbd88826110f7565b845260208401935060208301925050600181019050610fa7565b5050505092915050565b6000610fed825161173b565b905092915050565b600082601f830112151561100857600080fd5b815161101b61101682611690565b61163b565b9150808252602083016020830185838301111561103757600080fd5b6110428382846117ba565b50505092915050565b600082601f830112151561105e57600080fd5b813561107161106c826116bc565b61163b565b9150808252602083016020830185838301111561108d57600080fd5b6110988382846117ab565b50505092915050565b600082601f83011215156110b457600080fd5b81516110c76110c2826116bc565b61163b565b915080825260208301602083018583830111156110e357600080fd5b6110ee8382846117ba565b50505092915050565b60006020828403121561110957600080fd5b611113602061163b565b9050600082015167ffffffffffffffff81111561112f57600080fd5b61113b84828501610ff5565b60008301525092915050565b60006111538235611747565b905092915050565b60006020828403121561116d57600080fd5b600061117b84828501610fe1565b91505092915050565b60006020828403121561119657600080fd5b600082013567ffffffffffffffff8111156111b057600080fd5b6111bc8482850161104b565b91505092915050565b600080600080608085870312156111db57600080fd5b600085015167ffffffffffffffff8111156111f557600080fd5b611201878288016110a1565b945050602085015167ffffffffffffffff81111561121e57600080fd5b61122a878288016110a1565b935050604085015167ffffffffffffffff81111561124757600080fd5b611253878288016110a1565b925050606085015167ffffffffffffffff81111561127057600080fd5b61127c87828801610f6b565b91505092959194509250565b6000806000806080858703121561129e57600080fd5b600085013567ffffffffffffffff8111156112b857600080fd5b6112c48782880161104b565b945050602085013567ffffffffffffffff8111156112e157600080fd5b6112ed8782880161104b565b93505060406112fe87828801611147565b925050606085013567ffffffffffffffff81111561131b57600080fd5b6113278782880161104b565b91505092959194509250565b61133c81611751565b82525050565b61134b816116f3565b82525050565b61135a81611705565b82525050565b61136981611711565b82525050565b61137881611763565b82525050565b6000611389826116e8565b80845261139d8160208601602086016117ba565b6113a6816117ed565b602085010191505092915050565b6000602082527f496e73746974757465206163636f756e7420646f6573206e6f742065786973746020830152604082019050919050565b6000602882527f4365727469666963617465207769746820676976656e20696420616c7265616460208301527f79206578697374730000000000000000000000000000000000000000000000006040830152606082019050919050565b6000601d82527f436572746966696361746520696420646f6573206e6f742065786973740000006020830152604082019050919050565b6000601482527f496e76616c696420436f7572736520696e6465780000000000000000000000006020830152604082019050919050565b60006020820190506114cb6000830184611342565b92915050565b60006020820190506114e66000830184611333565b92915050565b60006020820190506115016000830184611360565b92915050565b600060208201905061151c600083018461136f565b92915050565b600060e082019050818103600083015261153c818a61137e565b90508181036020830152611550818961137e565b90508181036040830152611564818861137e565b90508181036060830152611578818761137e565b9050818103608083015261158c818661137e565b905081810360a08301526115a0818561137e565b90506115af60c0830184611351565b98975050505050505050565b600060208201905081810360008301526115d4816113b4565b9050919050565b600060208201905081810360008301526115f4816113eb565b9050919050565b6000602082019050818103600083015261161481611448565b9050919050565b600060208201905081810360008301526116348161147f565b9050919050565b6000604051905081810181811067ffffffffffffffff8211171561165e57600080fd5b8060405250919050565b600067ffffffffffffffff82111561167f57600080fd5b602082029050602081019050919050565b600067ffffffffffffffff8211156116a757600080fd5b601f19601f8301169050602081019050919050565b600067ffffffffffffffff8211156116d357600080fd5b601f19601f8301169050602081019050919050565b600081519050919050565b60006116fe8261171b565b9050919050565b60008115159050919050565b6000819050919050565b600073ffffffffffffffffffffffffffffffffffffffff82169050919050565b60008115159050919050565b6000819050919050565b600061175c82611787565b9050919050565b600061176e82611775565b9050919050565b60006117808261171b565b9050919050565b600061179282611799565b9050919050565b60006117a48261171b565b9050919050565b82818337600083830152505050565b60005b838110156117d85780820151818401526020810190506117bd565b838111156117e7576000848401525b50505050565b6000601f19601f830116905091905056fea265627a7a72305820ad6b60d295e3a1a9204238857b9ed4d46c6d997ee1d9e015e0465b9b93a67a5f6c6578706572696d656e74616cf50037",
  "source": "// SPDX-License-Identifier: GPL-3.0\npragma solidity >=0.5.0 <0.9.0;\npragma experimental ABIEncoderV2;\n\nimport \"./Institution.sol\";\n\ncontract Certification {\n    // State Variables\n    address public owner;\n    Institution public institution;\n\n    // Mappings\n    mapping(bytes32 => Certificate) private certificates;\n\n    // Events\n    event certificateGenerated(bytes32 _certificateId);\n    event certificateRevoked(bytes32 _certificateId);\n\n    constructor(Institution _institution) public {\n        owner = msg.sender;\n        institution = _institution;\n    }\n\n    struct Certificate {\n        // Individual Info\n        string candidate_name;\n        string course_name;\n        string creation_date;\n\n        // Institute Info\n        string institute_name;\n        string institute_acronym;\n        string institute_link;\n\n        // Revocation status\n        bool revoked;\n    }\n\n    function stringToBytes32(string memory source) private pure returns (bytes32 result) {\n        bytes memory tempEmptyStringTest = bytes(source);\n        if (tempEmptyStringTest.length == 0) {\n            return 0x0;\n        }\n        assembly {\n                result := mload(add(source, 32))\n        }\n    }\n\n    function generateCertificate(\n        string memory _id,\n        string memory _candidate_name,\n        uint256 _course_index, \n        string memory _creation_date) public {\n        require(institution.checkInstitutePermission(msg.sender) == true, \"Institute account does not exist\");\n        bytes32 byte_id = stringToBytes32(_id);\n        // require(certificates[byte_id].creation_date == 0, \"Certificate with given id already exists\");\n        bytes memory tempEmptyStringNameTest = bytes(\n            certificates[byte_id].creation_date\n        );\n        require(\n            tempEmptyStringNameTest.length == 0,\n            \"Certificate with given id already exists\"\n        );\n        (string memory _institute_name, string memory _institute_acronym, string memory _institute_link, Institution.Course[] memory _institute_courses) = institution.getInstituteData(msg.sender);\n        require(_course_index >= 0 && _course_index < _institute_courses.length, \"Invalid Course index\");\n        string memory _course_name = _institute_courses[_course_index].course_name;\n        bool revocation_status = false;\n        certificates[byte_id] = Certificate(_candidate_name, _course_name, _creation_date, _institute_name, _institute_acronym, _institute_link, revocation_status);\n        emit certificateGenerated(byte_id);\n    }\n\n    function getData(string memory _id) public view returns(string memory, string memory, string memory, string memory, string memory, string memory, bool) {\n        bytes32 byte_id = stringToBytes32(_id);\n        Certificate memory temp = certificates[byte_id];\n        // require(certificates[byte_id].creation_date != 0, \"Certificate id does not exist!\");\n        bytes memory tempEmptyStringNameTest = bytes(\n            certificates[byte_id].creation_date\n        );\n        require(\n            tempEmptyStringNameTest.length != 0,\n            \"Certificate id does not exist\"\n        );\n        return (temp.candidate_name, temp.course_name, temp.creation_date, temp.institute_name, temp.institute_acronym, temp.institute_link, temp.revoked);\n    }\n\n    function revokeCertificate(string memory _id) public {\n        require(institution.checkInstitutePermission(msg.sender) == true, \"Institute account does not exist\");\n        bytes32 byte_id = stringToBytes32(_id);\n        bytes memory tempEmptyStringNameTest = bytes(\n            certificates[byte_id].creation_date\n        );\n        require(\n            tempEmptyStringNameTest.length != 0,\n            \"Certificate id does not exist\"\n        );\n        certificates[byte_id].revoked = true;\n        emit certificateRevoked(byte_id);\n    }\n}",
  "sourcePath": "C:\\01 Drive\\01Skills\\BlockChain\\7th Sem Project\\myProject\\contracts\\Certification.sol",
  "compiler": {
    "name": "solc",
    "version": "0.5.1+commit.c8a2cb62.Emscripten.clang"
  },
  "schemaVersion": "3.4.16",
  "updatedAt": "2023-09-14T03:08:51.795Z",
  "networkType": "ethereum",
  "devdoc": {
    "methods": {}
  },
  "userdoc": {
    "methods": {}
  }
}