{
  "contractName": "Institution",
  "abi": [
    {
      "constant": true,
      "inputs": [],
      "name": "owner",
      "outputs": [
        {
          "name": "",
          "type": "address"
        }
      ],
      "payable": false,
      "stateMutability": "view",
      "type": "function"
    },
    {
      "inputs": [],
      "payable": false,
      "stateMutability": "nonpayable",
      "type": "constructor"
    },
    {
      "anonymous": false,
      "inputs": [
        {
          "indexed": false,
          "name": "_instituteName",
          "type": "string"
        }
      ],
      "name": "instituteAdded",
      "type": "event"
    },
    {
      "constant": false,
      "inputs": [
        {
          "name": "_address",
          "type": "address"
        },
        {
          "name": "_institute_name",
          "type": "string"
        },
        {
          "name": "_institute_acronym",
          "type": "string"
        },
        {
          "name": "_institute_link",
          "type": "string"
        },
        {
          "components": [
            {
              "name": "course_name",
              "type": "string"
            }
          ],
          "name": "_institute_courses",
          "type": "tuple[]"
        }
      ],
      "name": "addInstitute",
      "outputs": [
        {
          "name": "",
          "type": "bool"
        }
      ],
      "payable": false,
      "stateMutability": "nonpayable",
      "type": "function"
    },
    {
      "constant": true,
      "inputs": [],
      "name": "getInstituteData",
      "outputs": [
        {
          "name": "",
          "type": "string"
        },
        {
          "name": "",
          "type": "string"
        },
        {
          "name": "",
          "type": "string"
        },
        {
          "components": [
            {
              "name": "course_name",
              "type": "string"
            }
          ],
          "name": "",
          "type": "tuple[]"
        }
      ],
      "payable": false,
      "stateMutability": "view",
      "type": "function"
    },
    {
      "constant": true,
      "inputs": [
        {
          "name": "_address",
          "type": "address"
        }
      ],
      "name": "getInstituteData",
      "outputs": [
        {
          "name": "",
          "type": "string"
        },
        {
          "name": "",
          "type": "string"
        },
        {
          "name": "",
          "type": "string"
        },
        {
          "components": [
            {
              "name": "course_name",
              "type": "string"
            }
          ],
          "name": "",
          "type": "tuple[]"
        }
      ],
      "payable": false,
      "stateMutability": "view",
      "type": "function"
    },
    {
      "constant": true,
      "inputs": [
        {
          "name": "_address",
          "type": "address"
        }
      ],
      "name": "checkInstitutePermission",
      "outputs": [
        {
          "name": "",
          "type": "bool"
        }
      ],
      "payable": false,
      "stateMutability": "view",
      "type": "function"
    }
  ],
  "bytecode": "0x608060405234801561001057600080fd5b50336000806101000a81548173ffffffffffffffffffffffffffffffffffffffff021916908373ffffffffffffffffffffffffffffffffffffffff160217905550611a8f806100606000396000f3fe608060405260043610610067576000357c0100000000000000000000000000000000000000000000000000000000900480630334917c1461006c578063086f5a14146100a95780637c0edcdf146100d75780638da5cb5b14610117578063b350ce3c14610142575b600080fd5b34801561007857600080fd5b50610093600480360361008e9190810190611376565b61017f565b6040516100a0919061176c565b60405180910390f35b3480156100b557600080fd5b506100be61052e565b6040516100ce94939291906117a9565b60405180910390f35b3480156100e357600080fd5b506100fe60048036036100f99190810190611324565b61091d565b60405161010e94939291906117a9565b60405180910390f35b34801561012357600080fd5b5061012c610e37565b6040516101399190611751565b60405180910390f35b34801561014e57600080fd5b5061016960048036036101649190810190611324565b610e5c565b604051610176919061176c565b60405180910390f35b60008060009054906101000a900473ffffffffffffffffffffffffffffffffffffffff1673ffffffffffffffffffffffffffffffffffffffff163373ffffffffffffffffffffffffffffffffffffffff16141515610212576040517f08c379a00000000000000000000000000000000000000000000000000000000081526004016102099061184a565b60405180910390fd5b6060600160008873ffffffffffffffffffffffffffffffffffffffff1673ffffffffffffffffffffffffffffffffffffffff1681526020019081526020016000206000018054600181600116156101000203166002900480601f0160208091040260200160405190810160405280929190818152602001828054600181600116156101000203166002900480156102ea5780601f106102bf576101008083540402835291602001916102ea565b820191906000526020600020905b8154815290600101906020018083116102cd57829003601f168201915b5050505050905060008151141515610337576040517f08c379a000000000000000000000000000000000000000000000000000000000815260040161032e9061180a565b60405180910390fd5b6000835111151561037d576040517f08c379a00000000000000000000000000000000000000000000000000000000081526004016103749061182a565b60405180910390fd5b60606040519081016040528087815260200186815260200185815250600160008973ffffffffffffffffffffffffffffffffffffffff1673ffffffffffffffffffffffffffffffffffffffff16815260200190815260200160002060008201518160000190805190602001906103f49291906110c3565b5060208201518160010190805190602001906104119291906110c3565b50604082015181600201908051906020019061042e9291906110c3565b5090505060008090505b83518110156104ec57600260008973ffffffffffffffffffffffffffffffffffffffff1673ffffffffffffffffffffffffffffffffffffffff168152602001908152602001600020848281518110151561048e57fe5b9060200190602002015190806001815401808255809150509060018203906000526020600020016000909192909190915060008201518160000190805190602001906104db9291906110c3565b505050508080600101915050610438565b507fcc7604fcd5c45ed3c7605e263d6c59f75739c368ef78098126fa9f54443b314f8660405161051c9190611787565b60405180910390a15095945050505050565b60608060608061053c611143565b600160003373ffffffffffffffffffffffffffffffffffffffff1673ffffffffffffffffffffffffffffffffffffffff16815260200190815260200160002060606040519081016040529081600082018054600181600116156101000203166002900480601f0160208091040260200160405190810160405280929190818152602001828054600181600116156101000203166002900480156106205780601f106105f557610100808354040283529160200191610620565b820191906000526020600020905b81548152906001019060200180831161060357829003601f168201915b50505050508152602001600182018054600181600116156101000203166002900480601f0160208091040260200160405190810160405280929190818152602001828054600181600116156101000203166002900480156106c25780601f10610697576101008083540402835291602001916106c2565b820191906000526020600020905b8154815290600101906020018083116106a557829003601f168201915b50505050508152602001600282018054600181600116156101000203166002900480601f0160208091040260200160405190810160405280929190818152602001828054600181600116156101000203166002900480156107645780601f1061073957610100808354040283529160200191610764565b820191906000526020600020905b81548152906001019060200180831161074757829003601f168201915b5050505050815250509050606081600001519050600081511115156107be576040517f08c379a00000000000000000000000000000000000000000000000000000000081526004016107b59061186a565b60405180910390fd5b816000015182602001518360400151600260003373ffffffffffffffffffffffffffffffffffffffff1673ffffffffffffffffffffffffffffffffffffffff16815260200190815260200160002083935082925081915080805480602002602001604051908101604052809291908181526020016000905b828210156109075783829060005260206000200160206040519081016040529081600082018054600181600116156101000203166002900480601f0160208091040260200160405190810160405280929190818152602001828054600181600116156101000203166002900480156108ef5780601f106108c4576101008083540402835291602001916108ef565b820191906000526020600020905b8154815290600101906020018083116108d257829003601f168201915b50505050508152505081526020019060010190610836565b5050505090509550955095509550505090919293565b6060806060806000809054906101000a900473ffffffffffffffffffffffffffffffffffffffff1673ffffffffffffffffffffffffffffffffffffffff163373ffffffffffffffffffffffffffffffffffffffff16638da5cb5b6040518163ffffffff167c010000000000000000000000000000000000000000000000000000000002815260040160206040518083038186803b1580156109bd57600080fd5b505afa1580156109d1573d6000803e3d6000fd5b505050506040513d601f19601f820116820180604052506109f5919081019061134d565b73ffffffffffffffffffffffffffffffffffffffff16141515610a4d576040517f08c379a0000000000000000000000000000000000000000000000000000000008152600401610a449061188a565b60405180910390fd5b610a55611143565b600160008773ffffffffffffffffffffffffffffffffffffffff1673ffffffffffffffffffffffffffffffffffffffff16815260200190815260200160002060606040519081016040529081600082018054600181600116156101000203166002900480601f016020809104026020016040519081016040528092919081815260200182805460018160011615610100020316600290048015610b395780601f10610b0e57610100808354040283529160200191610b39565b820191906000526020600020905b815481529060010190602001808311610b1c57829003601f168201915b50505050508152602001600182018054600181600116156101000203166002900480601f016020809104026020016040519081016040528092919081815260200182805460018160011615610100020316600290048015610bdb5780601f10610bb057610100808354040283529160200191610bdb565b820191906000526020600020905b815481529060010190602001808311610bbe57829003601f168201915b50505050508152602001600282018054600181600116156101000203166002900480601f016020809104026020016040519081016040528092919081815260200182805460018160011615610100020316600290048015610c7d5780601f10610c5257610100808354040283529160200191610c7d565b820191906000526020600020905b815481529060010190602001808311610c6057829003601f168201915b505050505081525050905060608160000151905060008151111515610cd7576040517f08c379a0000000000000000000000000000000000000000000000000000000008152600401610cce906118aa565b60405180910390fd5b816000015182602001518360400151600260008b73ffffffffffffffffffffffffffffffffffffffff1673ffffffffffffffffffffffffffffffffffffffff16815260200190815260200160002083935082925081915080805480602002602001604051908101604052809291908181526020016000905b82821015610e205783829060005260206000200160206040519081016040529081600082018054600181600116156101000203166002900480601f016020809104026020016040519081016040528092919081815260200182805460018160011615610100020316600290048015610e085780601f10610ddd57610100808354040283529160200191610e08565b820191906000526020600020905b815481529060010190602001808311610deb57829003601f168201915b50505050508152505081526020019060010190610d4f565b505050509050955095509550955050509193509193565b6000809054906101000a900473ffffffffffffffffffffffffffffffffffffffff1681565b6000610e66611143565b600160008473ffffffffffffffffffffffffffffffffffffffff1673ffffffffffffffffffffffffffffffffffffffff16815260200190815260200160002060606040519081016040529081600082018054600181600116156101000203166002900480601f016020809104026020016040519081016040528092919081815260200182805460018160011615610100020316600290048015610f4a5780601f10610f1f57610100808354040283529160200191610f4a565b820191906000526020600020905b815481529060010190602001808311610f2d57829003601f168201915b50505050508152602001600182018054600181600116156101000203166002900480601f016020809104026020016040519081016040528092919081815260200182805460018160011615610100020316600290048015610fec5780601f10610fc157610100808354040283529160200191610fec565b820191906000526020600020905b815481529060010190602001808311610fcf57829003601f168201915b50505050508152602001600282018054600181600116156101000203166002900480601f01602080910402602001604051908101604052809291908181526020018280546001816001161561010002031660029004801561108e5780601f106110635761010080835404028352916020019161108e565b820191906000526020600020905b81548152906001019060200180831161107157829003601f168201915b50505050508152505090506060816000015190506000815111156110b7576001925050506110be565b6000925050505b919050565b828054600181600116156101000203166002900490600052602060002090601f016020900481019282601f1061110457805160ff1916838001178555611132565b82800160010185558215611132579182015b82811115611131578251825591602001919060010190611116565b5b50905061113f9190611165565b5090565b6060604051908101604052806060815260200160608152602001606081525090565b61118791905b8082111561118357600081600090555060010161116b565b5090565b90565b600061119682356119f0565b905092915050565b60006111aa82516119f0565b905092915050565b600082601f83011215156111c557600080fd5b81356111d86111d3826118f7565b6118ca565b9150818183526020840193506020810190508360005b8381101561121e578135860161120488826112d4565b8452602084019350602083019250506001810190506111ee565b5050505092915050565b600082601f830112151561123b57600080fd5b813561124e6112498261191f565b6118ca565b9150808252602083016020830185838301111561126a57600080fd5b611275838284611a02565b50505092915050565b600082601f830112151561129157600080fd5b81356112a461129f8261194b565b6118ca565b915080825260208301602083018583830111156112c057600080fd5b6112cb838284611a02565b50505092915050565b6000602082840312156112e657600080fd5b6112f060206118ca565b9050600082013567ffffffffffffffff81111561130c57600080fd5b61131884828501611228565b60008301525092915050565b60006020828403121561133657600080fd5b60006113448482850161118a565b91505092915050565b60006020828403121561135f57600080fd5b600061136d8482850161119e565b91505092915050565b600080600080600060a0868803121561138e57600080fd5b600061139c8882890161118a565b955050602086013567ffffffffffffffff8111156113b957600080fd5b6113c58882890161127e565b945050604086013567ffffffffffffffff8111156113e257600080fd5b6113ee8882890161127e565b935050606086013567ffffffffffffffff81111561140b57600080fd5b6114178882890161127e565b925050608086013567ffffffffffffffff81111561143457600080fd5b611440888289016111b2565b9150509295509295909350565b611456816119b2565b82525050565b600061146782611984565b8084526020840193508360208202850161148085611977565b60005b848110156114b957838303885261149b838351611727565b92506114a6826119a5565b9150602088019750600181019050611483565b508196508694505050505092915050565b6114d3816119c4565b82525050565b60006114e48261199a565b8084526114f8816020860160208601611a11565b61150181611a44565b602085010191505092915050565b600061151a8261198f565b80845261152e816020860160208601611a11565b61153781611a44565b602085010191505092915050565b6000602382527f496e73746974757465207769746820746f6b656e20616c72656164792065786960208301527f73747300000000000000000000000000000000000000000000000000000000006040830152606082019050919050565b6000602082527f41746c65617374206f6e6520636f75727365206d7573742062652061646465646020830152604082019050919050565b6000603a82527f43616c6c6572206d75737420626520746865206f776e6572202d206f6e6c792060208301527f6f776e65722063616e2061646420616e20696e737469747574650000000000006040830152606082019050919050565b6000602182527f496e73746974757465206163636f756e7420646f6573206e6f7420657869737460208301527f21000000000000000000000000000000000000000000000000000000000000006040830152606082019050919050565b6000602a82527f496e636f727265637420736d61727420636f6e7472616374202620617574686f60208301527f72697a6174696f6e7321000000000000000000000000000000000000000000006040830152606082019050919050565b6000601982527f496e7374697475746520646f6573206e6f7420657869737421000000000000006020830152604082019050919050565b60006020830160008301518482036000860152611744828261150f565b9150508091505092915050565b6000602082019050611766600083018461144d565b92915050565b600060208201905061178160008301846114ca565b92915050565b600060208201905081810360008301526117a181846114d9565b905092915050565b600060808201905081810360008301526117c381876114d9565b905081810360208301526117d781866114d9565b905081810360408301526117eb81856114d9565b905081810360608301526117ff818461145c565b905095945050505050565b6000602082019050818103600083015261182381611545565b9050919050565b60006020820190508181036000830152611843816115a2565b9050919050565b60006020820190508181036000830152611863816115d9565b9050919050565b6000602082019050818103600083015261188381611636565b9050919050565b600060208201905081810360008301526118a381611693565b9050919050565b600060208201905081810360008301526118c3816116f0565b9050919050565b6000604051905081810181811067ffffffffffffffff821117156118ed57600080fd5b8060405250919050565b600067ffffffffffffffff82111561190e57600080fd5b602082029050602081019050919050565b600067ffffffffffffffff82111561193657600080fd5b601f19601f8301169050602081019050919050565b600067ffffffffffffffff82111561196257600080fd5b601f19601f8301169050602081019050919050565b6000602082019050919050565b600081519050919050565b600081519050919050565b600081519050919050565b6000602082019050919050565b60006119bd826119d0565b9050919050565b60008115159050919050565b600073ffffffffffffffffffffffffffffffffffffffff82169050919050565b60006119fb826119d0565b9050919050565b82818337600083830152505050565b60005b83811015611a2f578082015181840152602081019050611a14565b83811115611a3e576000848401525b50505050565b6000601f19601f830116905091905056fea265627a7a723058202436654d382a05824ed35ff5decfef553db969bba43f066c3f72b45217baee446c6578706572696d656e74616cf50037",
  "source": "// SPDX-License-Identifier: GPL-3.0\npragma solidity >=0.5.0 <0.9.0;\npragma experimental ABIEncoderV2;\n\nimport \"./Certification.sol\";\n\ncontract Institution {\n    // State Variables\n    address public owner;\n\n    // Mappings\n    mapping(address => Institute) private institutes; // Institutes Mapping\n    mapping(address => Course[]) private instituteCourses; // Courses Mapping\n\n    // Events\n    event instituteAdded(string _instituteName);\n\n    constructor() public {\n        owner = msg.sender;\n    }\n\n    struct Course {\n        string course_name;\n        // Other attributes can be added\n    }\n\n    struct Institute {\n        string institute_name;\n        string institute_acronym;\n        string institute_link;\n    }\n\n    function stringToBytes32(string memory source)\n        private\n        pure\n        returns (bytes32 result)\n    {\n        bytes memory tempEmptyStringTest = bytes(source);\n        if (tempEmptyStringTest.length == 0) {\n            return 0x0;\n        }\n        assembly {\n            result := mload(add(source, 32))\n        }\n    }\n\n    function addInstitute(\n        address _address,\n        string memory _institute_name,\n        string memory _institute_acronym,\n        string memory _institute_link,\n        Course[] memory _institute_courses\n    ) public returns (bool) {\n        // Only owner can add institute\n        require(\n            msg.sender == owner,\n            \"Caller must be the owner - only owner can add an institute\"\n        );\n        bytes memory tempEmptyStringNameTest = bytes(\n            institutes[_address].institute_name\n        );\n        require(\n            tempEmptyStringNameTest.length == 0,\n            \"Institute with token already exists\"\n        );\n        require(\n            _institute_courses.length > 0,\n            \"Atleast one course must be added\"\n        );\n        institutes[_address] = Institute(\n            _institute_name,\n            _institute_acronym,\n            _institute_link\n        );\n        for (uint256 i = 0; i < _institute_courses.length; i++) {\n            instituteCourses[_address].push(_institute_courses[i]);\n        }\n        emit instituteAdded(_institute_name);\n    }\n\n    // Called by Institutions\n    function getInstituteData()\n        public\n        view\n        returns (\n            string memory,\n            string memory,\n            string memory,\n            Course[] memory\n        )\n    {\n        Institute memory temp = institutes[msg.sender];\n        bytes memory tempEmptyStringNameTest = bytes(temp.institute_name);\n        require(\n            tempEmptyStringNameTest.length > 0,\n            \"Institute account does not exist!\"\n        );\n        return (\n            temp.institute_name,\n            temp.institute_acronym,\n            temp.institute_link,\n            instituteCourses[msg.sender]\n        );\n    }\n\n    // Called by Smart Contracts\n    function getInstituteData(address _address)\n        public\n        view\n        returns (\n            string memory,\n            string memory,\n            string memory,\n            Course[] memory\n        )\n    {\n        require(Certification(msg.sender).owner() == owner, \"Incorrect smart contract & authorizations!\");\n        Institute memory temp = institutes[_address];\n        bytes memory tempEmptyStringNameTest = bytes(temp.institute_name);\n        require(\n            tempEmptyStringNameTest.length > 0,\n            \"Institute does not exist!\"\n        );\n        return (\n            temp.institute_name,\n            temp.institute_acronym,\n            temp.institute_link,\n            instituteCourses[_address]\n        );\n    }\n\n    function checkInstitutePermission(address _address)\n        public\n        view\n        returns (bool)\n    {\n        Institute memory temp = institutes[_address];\n        bytes memory tempEmptyStringNameTest = bytes(temp.institute_name);\n        if (tempEmptyStringNameTest.length > 0) {\n            return true;\n        } else {\n            return false;\n        }\n    }\n}\n",
  "sourcePath": "C:\\01 Drive\\01Skills\\BlockChain\\7th Sem Project\\myProject\\contracts\\Institution.sol",
  "compiler": {
    "name": "solc",
    "version": "0.5.1+commit.c8a2cb62.Emscripten.clang"
  },
  "schemaVersion": "3.4.16",
  "updatedAt": "2023-09-14T03:08:51.817Z",
  "networkType": "ethereum",
  "devdoc": {
    "methods": {}
  },
  "userdoc": {
    "methods": {}
  }
}